{
  "contractName": "Emission",
  "abi": [
    {
      "anonymous": false,
      "inputs": [
        {
          "indexed": false,
          "internalType": "string",
          "name": "wallet_id",
          "type": "string"
        },
        {
          "indexed": false,
          "internalType": "string",
          "name": "carbon",
          "type": "string"
        },
        {
          "indexed": false,
          "internalType": "string",
          "name": "date",
          "type": "string"
        },
        {
          "indexed": false,
          "internalType": "string",
          "name": "fees",
          "type": "string"
        }
      ],
      "name": "EmissionData",
      "type": "event"
    },
    {
      "inputs": [],
      "name": "dataCount",
      "outputs": [
        {
          "internalType": "uint256",
          "name": "",
          "type": "uint256"
        }
      ],
      "stateMutability": "view",
      "type": "function",
      "constant": true
    },
    {
      "inputs": [
        {
          "internalType": "uint256",
          "name": "",
          "type": "uint256"
        }
      ],
      "name": "emmis",
      "outputs": [
        {
          "internalType": "string",
          "name": "wallet_id",
          "type": "string"
        },
        {
          "internalType": "string",
          "name": "carbon",
          "type": "string"
        },
        {
          "internalType": "string",
          "name": "date",
          "type": "string"
        },
        {
          "internalType": "string",
          "name": "fees",
          "type": "string"
        }
      ],
      "stateMutability": "view",
      "type": "function",
      "constant": true
    },
    {
      "inputs": [
        {
          "internalType": "string",
          "name": "_walletID",
          "type": "string"
        },
        {
          "internalType": "string",
          "name": "_carbon",
          "type": "string"
        },
        {
          "internalType": "string",
          "name": "_date",
          "type": "string"
        },
        {
          "internalType": "string",
          "name": "_fees",
          "type": "string"
        }
      ],
      "name": "createEmissionData",
      "outputs": [],
      "stateMutability": "nonpayable",
      "type": "function"
    }
  ],
  "bytecode": "0x60806040526000805534801561001457600080fd5b50610b1c806100246000396000f3fe608060405234801561001057600080fd5b50600436106100415760003560e01c80630c345808146100465780635c6581c5146100795780635da40c4714610095575b600080fd5b610060600480360381019061005b919061043d565b6100b3565b60405161007094939291906104fa565b60405180910390f35b610093600480360381019061008e9190610690565b610303565b005b61009d6103ed565b6040516100aa9190610776565b60405180910390f35b60016020528060005260406000206000915090508060000180546100d6906107c0565b80601f0160208091040260200160405190810160405280929190818152602001828054610102906107c0565b801561014f5780601f106101245761010080835404028352916020019161014f565b820191906000526020600020905b81548152906001019060200180831161013257829003601f168201915b505050505090806001018054610164906107c0565b80601f0160208091040260200160405190810160405280929190818152602001828054610190906107c0565b80156101dd5780601f106101b2576101008083540402835291602001916101dd565b820191906000526020600020905b8154815290600101906020018083116101c057829003601f168201915b5050505050908060020180546101f2906107c0565b80601f016020809104026020016040519081016040528092919081815260200182805461021e906107c0565b801561026b5780601f106102405761010080835404028352916020019161026b565b820191906000526020600020905b81548152906001019060200180831161024e57829003601f168201915b505050505090806003018054610280906107c0565b80601f01602080910402602001604051908101604052809291908181526020018280546102ac906107c0565b80156102f95780601f106102ce576101008083540402835291602001916102f9565b820191906000526020600020905b8154815290600101906020018083116102dc57829003601f168201915b5050505050905084565b60008081548092919061031590610820565b9190505550604051806080016040528085815260200184815260200183815260200182815250600160008054815260200190815260200160002060008201518160000190816103649190610a14565b50602082015181600101908161037a9190610a14565b5060408201518160020190816103909190610a14565b5060608201518160030190816103a69190610a14565b509050507f8e1020aeab28940d57ebc2eb4f99b74f35ccabc0536033932a811879d511b937848484846040516103df94939291906104fa565b60405180910390a150505050565b60005481565b6000604051905090565b600080fd5b600080fd5b6000819050919050565b61041a81610407565b811461042557600080fd5b50565b60008135905061043781610411565b92915050565b600060208284031215610453576104526103fd565b5b600061046184828501610428565b91505092915050565b600081519050919050565b600082825260208201905092915050565b60005b838110156104a4578082015181840152602081019050610489565b60008484015250505050565b6000601f19601f8301169050919050565b60006104cc8261046a565b6104d68185610475565b93506104e6818560208601610486565b6104ef816104b0565b840191505092915050565b6000608082019050818103600083015261051481876104c1565b9050818103602083015261052881866104c1565b9050818103604083015261053c81856104c1565b9050818103606083015261055081846104c1565b905095945050505050565b600080fd5b600080fd5b7f4e487b7100000000000000000000000000000000000000000000000000000000600052604160045260246000fd5b61059d826104b0565b810181811067ffffffffffffffff821117156105bc576105bb610565565b5b80604052505050565b60006105cf6103f3565b90506105db8282610594565b919050565b600067ffffffffffffffff8211156105fb576105fa610565565b5b610604826104b0565b9050602081019050919050565b82818337600083830152505050565b600061063361062e846105e0565b6105c5565b90508281526020810184848401111561064f5761064e610560565b5b61065a848285610611565b509392505050565b600082601f8301126106775761067661055b565b5b8135610687848260208601610620565b91505092915050565b600080600080608085870312156106aa576106a96103fd565b5b600085013567ffffffffffffffff8111156106c8576106c7610402565b5b6106d487828801610662565b945050602085013567ffffffffffffffff8111156106f5576106f4610402565b5b61070187828801610662565b935050604085013567ffffffffffffffff81111561072257610721610402565b5b61072e87828801610662565b925050606085013567ffffffffffffffff81111561074f5761074e610402565b5b61075b87828801610662565b91505092959194509250565b61077081610407565b82525050565b600060208201905061078b6000830184610767565b92915050565b7f4e487b7100000000000000000000000000000000000000000000000000000000600052602260045260246000fd5b600060028204905060018216806107d857607f821691505b6020821081036107eb576107ea610791565b5b50919050565b7f4e487b7100000000000000000000000000000000000000000000000000000000600052601160045260246000fd5b600061082b82610407565b91507fffffffffffffffffffffffffffffffffffffffffffffffffffffffffffffffff820361085d5761085c6107f1565b5b600182019050919050565b60008190508160005260206000209050919050565b60006020601f8301049050919050565b600082821b905092915050565b6000600883026108ca7fffffffffffffffffffffffffffffffffffffffffffffffffffffffffffffffff8261088d565b6108d4868361088d565b95508019841693508086168417925050509392505050565b6000819050919050565b600061091161090c61090784610407565b6108ec565b610407565b9050919050565b6000819050919050565b61092b836108f6565b61093f61093782610918565b84845461089a565b825550505050565b600090565b610954610947565b61095f818484610922565b505050565b5b818110156109835761097860008261094c565b600181019050610965565b5050565b601f8211156109c85761099981610868565b6109a28461087d565b810160208510156109b1578190505b6109c56109bd8561087d565b830182610964565b50505b505050565b600082821c905092915050565b60006109eb600019846008026109cd565b1980831691505092915050565b6000610a0483836109da565b9150826002028217905092915050565b610a1d8261046a565b67ffffffffffffffff811115610a3657610a35610565565b5b610a4082546107c0565b610a4b828285610987565b600060209050601f831160018114610a7e5760008415610a6c578287015190505b610a7685826109f8565b865550610ade565b601f198416610a8c86610868565b60005b82811015610ab457848901518255600182019150602085019450602081019050610a8f565b86831015610ad15784890151610acd601f8916826109da565b8355505b6001600288020188555050505b50505050505056fea2646970667358221220584badc6e78f53ff646a4728416d8a85af7d4f9c278dbc14f13ed3304df45f0e64736f6c63430008120033",
  "immutableReferences": {},
  "source": "// SPDX-License-Identifier: MIT\npragma solidity >=0.4.22 <0.9.0;\n\ncontract Emission {\n    uint256 public dataCount = 0;\n    struct Data {\n        string wallet_id;\n        string carbon;\n        string date;\n        string fees;\n    }\n\n    event EmissionData(string wallet_id, string carbon, string date, string fees);\n\n    mapping(uint256 => Data) public emmis;\n\n    function createEmissionData(string memory _walletID, string memory _carbon, string memory _date, string memory _fees) public {\n        dataCount++;\n        emmis[dataCount] = Data(_walletID, _carbon, _date, _fees);\n        emit EmissionData(_walletID, _carbon, _date, _fees);\n    }\n\n}\n",
  "sourcePath": "C:\\Users\\panth\\Downloads\\Green-Chain-main\\Green-Chain-main\\contracts\\Emission.sol",
  "compiler": {
    "name": "solc",
    "version": "0.8.18+commit.87f61d96.Emscripten.clang"
  },
  "schemaVersion": "3.4.13",
  "updatedAt": "2023-04-26T17:26:56.465Z",
  "networkType": "ethereum",
  "devdoc": {
    "kind": "dev",
    "methods": {},
    "version": 1
  },
  "userdoc": {
    "kind": "user",
    "methods": {},
    "version": 1
  }
}